:04000000FEEF3FF0E0
:1006000000000E6A0F6A1D6A1C6A1F6A000E1E6EC9
:1006100010EC08F0040EF5EC06F001C01EF002C06C
:100620001FF042EC06F0106E4FEC07F00E6EB3ECCC
:1006300007F00F6E81EC07F00D6E68EC07F01D6E91
:100640009AEC07F01C6E1C04D8A429EF03F02BEFE2
:1006500003F02DEF03F02F6A1D6A1D50D8A433EF6D
:1006600003F035EF03F03DEF03F0326A316A306A90
:100670002F6A2E6A2D6A4E0E106E000ECCEC07F01B
:100680007F0B28EC08F0116E010ECCEC07F028EC83
:1006900008F0126E020ECCEC07F03F0B28EC08F0CD
:1006A000136E1EC001F01FC002F0046A640E036ED8
:1006B00009EC06F00150300F146E046A0A0E036E46
:1006C0001EC001F01FC002F009EC06F001C008F0E6
:1006D00002C009F00B6A0A0E0A6E78EC06F00850A8
:1006E000300F156E1EC008F01FC009F00B6A0A0E0D
:1006F0000A6E78EC06F00850300F166E140E016E7C
:10070000036A030E026E87EC05F0026A0A0E016EA0
:10071000D1EC06F010C014F00E50300F156E0F50D3
:10072000300F166E0D50300F176E1D50300F186EB3
:100730001C50300F196E140E016E036A060E026E05
:1007400087EC05F0026A0A0E016ED1EC06F013C0C8
:1007500001F0026A046A0A0E036E7DEC04F0015097
:10076000300F146E13C001F0026A046A0A0E036EA1
:10077000DDEC04F00150300F156E12C001F0026A7A
:10078000046A0A0E036E7DEC04F00150300F166E01
:1007900012C001F0026A046A0A0E036EDDEC04F076
:1007A0000150300F176E11C001F0026A046A0A0E80
:1007B000036E7DEC04F00150300F186E11C001F093
:1007C000026A046A0A0E036EDDEC04F00150300F79
:1007D000196E140E016E036A060E026E87EC05F0A8
:1007E000026A0A0E016ED1EC06F00AEF03F0FEEF8A
:1007F0003FF0819A818C818E81B201EF04F003EF8A
:1008000004F006EF04F0010E7CEF04F081B40BEF6E
:1008100004F00DEF04F010EF04F0040E7CEF04F090
:1008200081B615EF04F017EF04F01AEF04F0070E8D
:100830007CEF04F081B81FEF04F021EF04F024EF07
:1008400004F00A0E7CEF04F0818A819C818E81B2D3
:100850002CEF04F02EEF04F031EF04F0020E7CEFE9
:1008600004F081B436EF04F038EF04F03BEF04F00D
:10087000050E7CEF04F081B640EF04F042EF04F087
:1008800045EF04F0080E7CEF04F081B84AEF04F065
:100890004CEF04F04FEF04F00B0E7CEF04F0818A74
:1008A000818C819E819E81B258EF04F05AEF04F052
:1008B0005DEF04F0030E7CEF04F081B462EF04F00E
:1008C00064EF04F067EF04F0060E7CEF04F081B6ED
:1008D0006CEF04F06EEF04F071EF04F0090E7CEFA2
:1008E00004F081B876EF04F078EF04F07BEF04F0C9
:1008F0000C0E7CEF04F0FF0E1200066A04BE85EFBA
:1009000004F083EF04F08BEF04F0036C041ED8B006
:10091000042A010E066E02BE92EF04F090EF04F07E
:1009200098EF04F0016C021ED8B0022A010E061ADC
:10093000086A000E076E03500410D8B4A2EF04F04A
:10094000A4EF04F0CCEF04F0010E056EACEF04F060
:10095000D89003360436052A04AEB1EF04F0B3EFA5
:1009600004F0A8EF04F0D890073608360350015C75
:1009700004500258D8A0BFEF04F0C1EF04F0C6EF56
:1009800004F00350015E0450025A0780D8900432EC
:100990000332052EB3EF04F00650D8B4D2EF04F0C2
:1009A000D4EF04F0D8EF04F0076C081ED8B0082A82
:1009B00007C001F008C002F01200066A02BEE5EFAF
:1009C00004F0E3EF04F0EBEF04F0016C021ED8B08A
:1009D000022A010E066E04BEF2EF04F0F0EF04F0FE
:1009E000F6EF04F0036C041ED8B0042A0350041080
:1009F000D8B4FDEF04F0FFEF04F023EF05F0010E93
:100A0000056E07EF05F0D89003360436052A04AECC
:100A10000CEF05F00EEF05F003EF05F00350015C5D
:100A200004500258D8A017EF05F019EF05F01DEF9C
:100A300005F00350015E0450025AD890043203328C
:100A4000052E0EEF05F00650D8B429EF05F02BEF78
:100A500005F02FEF05F0016C021ED8B0022A01C08C
:100A600001F002C002F01200956A9450F80B946EE7
:100A70008290C30E036ECD0EE82EFED7032EFCD758
:100A80000000000E016E330E18EC07F01B0E036E13
:100A90009E0EE82EFED7032EFCD700D0000E016E6E
:100AA000330E18EC07F0A60EE82EFED700D0000E8D
:100AB000016E330E18EC07F000D000D00000000EDD
:100AC000016E020E18EC07F0A60EE82EFED700D03D
:100AD000000E016E380E18EC07F0A60EE82EFED7B9
:100AE00000D0000E016E010E18EC07F0040E036E2C
:100AF0003E0EE82EFED7032EFCD7000E016E0C0E24
:100B000018EC07F0A60EE82EFED700D012000F0159
:100B1000436B446B6D0E416FC00E426F02C045FFC8
:100B20000150D96EDA6ADF50466F0150D96EDA6A29
:100B3000010ED926DF50476F0150D96EDA6A020ED6
:100B4000D926DF50486F0150D96EDA6A030ED926D4
:100B5000DF50496F0150D96EDA6A040ED926DF5092
:100B60004A6F0150D96EDA6A050ED926DF504B6FF5
:100B70000150D96EDA6A060ED926DF504C6F01504B
:100B8000D96EDA6A070ED926DF504D6F408740B71D
:100B9000CCEF05F0CEEF05F0C7EF05F01200016EC7
:100BA0000104D8A4D6EF05F0D8EF05F0FBEF05F06F
:100BB000F9EC03F0336E3328D8B4E1EF05F0E3EF3E
:100BC00005F0EFEF05F03450D8B4E9EF05F0EBEFA6
:100BD00005F0EFEF05F0346A335008EF06F03328E4
:100BE000D8A4F5EF05F0F7EF05F007EF06F0010EDA
:100BF000346E07EF06F00150D8A401EF06F003EFC2
:100C000006F007EF06F0F9EC03F008EF06F0FF0E30
:100C10001200066A000E056E03500410D8B413EFDC
:100C200006F015EF06F03DEF06F0010E076E1DEF22
:100C300006F0D89003360436072A04AE22EF06F0F9
:100C400024EF06F019EF06F0D8900536063603506B
:100C5000015C04500258D8A030EF06F032EF06F0E5
:100C600037EF06F00350015E0450025A0580D89019
:100C700004320332072E24EF06F005C001F006C04F
:100C800002F01200010ECFEC05F0026E0228D8B47B
:100C90004CEF06F04EEF06F057EF06F00204D8A432
:100CA00054EF06F056EF06F057EF06F02D2A060E29
:100CB0002D645DEF06F05FEF06F060EF06F02D6A41
:100CC0002D50D8A466EF06F068EF06F06BEF06F043
:100CD0004E0E77EF06F0050E2D6471EF06F073EF00
:100CE00006F076EF06F0520E77EF06F02D50120068
:100CF0000A500B10D8B47FEF06F081EF06F0A5EF95
:100D000006F0010E0C6E89EF06F0D8900A360B360D
:100D10000C2A0BAE8EEF06F090EF06F085EF06F092
:100D20000A50085C0B500958D8A099EF06F09BEFC9
:100D300006F09FEF06F00A50085E0B50095AD89053
:100D40000B320A320C2E90EF06F008C008F009C0F2
:100D500009F01200939493861F0E6F166F8E800E0B
:100D60006E18D8A4B6EF06F0B8EF06F0AFEF06F0B5
:100D7000776AE10E706E1B0E716E030E726E0D01BE
:100D8000D46B1F0E6F166F506ECF01F0E00E011680
:100D9000D8A4CDEF06F0CFEF06F0C4EF06F0606AFE
:100DA0001200066A000E056EE9EF06F0010E046EF1
:100DB000F40E036E0306D8A00406032806E10428F7
:100DC000D8A4E5EF06F0E7EF06F0DAEF06F0054A03
:100DD000062A0150055C02500658D8A0F2EF06F032
:100DE000F4EF06F0D6EF06F01200076E07C003F02E
:100DF000D8900336D8900336C250C30B0310C26E8E
:100E0000C282C2B206EF07F008EF07F001EF07F069
:100E1000C350C4CF03F0046A03C004F0036A031094
:100E2000056E0450066E05C001F006C002F0120007
:100E3000026E01B01EEF07F021EF07F0828222EF71
:100E400007F0829202C083FF82848294958E828012
:100E500082928284829483BE30EF07F032EF07F0F3
:100E600029EF07F08290959E1200C50E026E000ECB
:100E7000F3EC07F0430E026E010EF3EC07F0170ED1
:100E8000026E020EF3EC07F0930E026E070EF3EC07
:100E900007F0450E026E000EF3EC07F01200010E93
:100EA000CFEC05F0026E0228D8B459EF07F05BEFE3
:100EB00007F066EF07F0020E0218D8A462EF07F001
:100EC00064EF07F066EF07F0010E321A325012009D
:100ED000010ECFEC05F0026E0228D8B472EF07F0D5
:100EE00074EF07F07FEF07F00B0E0218D8A47BEF2A
:100EF00007F07DEF07F07FEF07F0010E2F1A2F505C
:100F00001200010ECFEC05F0026E0228D8B48BEF70
:100F100007F08DEF07F098EF07F00A0E0218D8A43B
:100F200094EF07F096EF07F098EF07F0010E2E1AF6
:100F30002E501200010ECFEC05F0026E0228D8B43C
:100F4000A4EF07F0A6EF07F0B1EF07F00C0E0218C0
:100F5000D8A4ADEF07F0AFEF07F0B1EF07F0010E47
:100F6000311A31501200010ECFEC05F0026E02284A
:100F7000D8B4BDEF07F0BFEF07F0CAEF07F0030EDC
:100F80000218D8A4C6EF07F0C8EF07F0CAEF07F0C1
:100F9000010E301A30501200026E5DEC08F0D00ED7
:100FA0004BEC08F002504BEC08F051EC08F0D10E7D
:100FB0004BEC08F045EC08F0036E59EC08F00350D8
:100FC0001200C80EF66E100EF76E000EF86E0900D5
:100FD000F5CF34F000EE20F0140EEE6AE806FDE1E5
:100FE000000101EF03F0036E5DEC08F0D00E4BEC56
:100FF00008F003504BEC08F002504BEC08F059ECB1
:1010000008F01200C08EC09AC088C096C090C082FE
:10101000C094C292C19AC198C46AC36AC2801200C5
:101020001DEC08F035EC07F034EC05F002EC08F0AC
:1010300033EC08F0AAEC06F0120094869488280E8F
:10104000C66E310EC86EC79CC78E9E96A1961200C2
:10105000056E05C004F00F0E041605380F0B0A0DBF
:10106000F350042412000F0EC16E1E0E936EF19EFB
:101070008150E009816E12009EA641EF08F043EF17
:1010800008F03CEF08F09E96120055EC08F061EC79
:1010900008F0C9501200016E01C0C9FF3CEC08F015
:1010A0001200C5823CEC08F01200C5863CEC08F04A
:1010B0001200C5843CEC08F01200C5803CEC08F03E
:0910C0001200C58AC58812000166
:047FFC00E1EF07F0BA
:00000001FF
