:04000000FEEF17F008
:10112800120001010301C58AC5881200C580B6EC0A
:1011380008F01200C584B6EC08F01200C586B6ECBB
:1011480008F01200C582B6EC08F012000C6E0CC054
:10115800C9FFB6EC08F01200A2EC08F097EC08F012
:10116800C95012009EA6BBEF08F0BDEF08F0B6EF1D
:1011780008F09E9612000F0EC16E1E0E936EF19E21
:101188008150E009816E120094869488280EC66EFC
:10119800310EC86EC79CC78E9E96A1961200C8ECE9
:1011A80008F0C1EC0BF0BFEC08F078EC0AF074EC36
:1011B80009F01200106E10C00FF00F0E0F16103845
:1011C8000F0B0A0DF3500F241200046E000E016E6F
:1011D8000350DDEC09F0010E016E0450DDEC09F05E
:1011E80012000E6E9AEC08F0D00EAAEC08F00E5021
:1011F800AAEC08F00D50AAEC08F09EEC08F01200DA
:101208000D6E9AEC08F0A00EAAEC08F00D50AAECAE
:1012180008F0A6EC08F0A10EAAEC08F0B0EC08F073
:101228000E6E9EEC08F00E5012000D6E9AEC08F04F
:10123800D00EAAEC08F00D50AAEC08F0A6EC08F0C5
:10124800D10EAAEC08F0B0EC08F00E6E9EEC08F097
:101258000E501200090E136E140E0F6E130410ECCC
:1012680010F0140E106E13509CEC10F0130613506F
:10127800D8A441EF09F043EF09F030EF09F012006C
:101288000F6E9AEC08F0A00EAAEC08F00F50AAEC2A
:1012980008F00D50AAEC08F09EEC08F0210E0E6E36
:1012A800760EE82EFED70E2EFCD700D012000B6E5D
:1012B8000BC001F0026A046A0A0E036EBEEC0CF061
:1012C80001C009F002C00AF00BC001F0026A046A0A
:1012D8000A0E036EC9EC0DF00138F00B091012006C
:1012E800C50E0D6E000EF5EC08F0430E0D6E010EE6
:1012F800F5EC08F0170E0D6E020EF5EC08F0930EE3
:101308000D6E070EF5EC08F0450E0D6E000EF5ECAF
:1013180008F0120008BE93EF09F095EF09F09BEF73
:1013280009F007C007F008C008F0A7EF09F007C0E8
:1013380009F008C00AF0091E0A1E094A0A2A09C04B
:1013480007F00AC008F01200370E496E34C04AF0A0
:101358004D6A000E4C6E546A000E536E4A0E2E6E85
:1013680035C02FF036C030F0490E316E35EC0AF03A
:1013780034504C24D96EDA6ADF6A12000F6E9AEC88
:1013880008F0D00EAAEC08F0000EAAEC08F00E50F7
:101398005BEC09F0AAEC08F00D505BEC09F0AAEC44
:1013A80008F00F505BEC09F0AAEC08F09EEC08F08E
:1013B8001200026E01B0E3EF09F0E6EF09F0828255
:1013C800E7EF09F0829202C083FF82848294958EAF
:1013D800828082928284829483BEF5EF09F0F7EFCF
:1013E80009F0EEEF09F08290959E12000D6A000E4A
:1013F8000C6E08EF0AF00BC001F0026A0AC003F095
:1014080014EC0CF00C4A0D2A09500C24D96EDA6A37
:10141800DF500B6E0B50D8A414EF0AF016EF0AF049
:10142800FFEF09F012002A0EF66E110EF76E000E8D
:10143800F86E00EEE6F010EE04F00900F5CFEEFFCE
:10144800E550E150FAE100EE60F0560EEE6AE8066B
:10145800FDE15F6A5E6A5D6A000EF86E0001F6EFF4
:1014680013F02FC032F030C033F044EF0AF02EC032
:1014780020F0320E216E31C022F0236A8CEC12F07B
:1014880032C0F6FF33C0F7FF0800F5500009D8A4B2
:1014980050EF0AF052EF0AF03BEF0AF02F6A000E05
:1014A8002E6E1200066E000E016E010EDDEC09F0C4
:1014B800770E036E2F0E046E800E056ED2EC0AF0C6
:1014C800076A6EEF0AF00750C00F036E2A0EE9ECA8
:1014D80008F0072A0650075CD8A075EF0AF077EFE6
:1014E8000AF067EF0AF01200939493861F0E6F16A6
:1014F8006F8E800E6E18D8A484EF0AF086EF0AF07B
:101508007DEF0AF0776AE10E706E1B0E716E030EA6
:10151800726E0D01D46B1F0E6F166F506ECF01F0F7
:10152800E00E0116D8A49BEF0AF09DEF0AF092EFA7
:101538000AF0606A12000001E951D8A4A6EF0AF087
:10154800A8EF0AF0AAEF0AF0D1EF0AF02EEC09F0A2
:101558002150D96EDA6A8AC0DFFF21C010F0000E70
:101568009CEC10F000018A2B090E8A65BEEF0AF088
:10157800C0EF0AF0C1EF0AF08A6B2150D96EDA6A1F
:10158800060ED926DE04D8A4CCEF0AF0CEEF0AF076
:10159800D1EF0AF0E96B010E946F1200000E016E94
:1015A8000550DDEC09F0EFEF0AF0010E016E03C003
:1015B800F6FF04C0F7FFF86A050EF76403D00800C9
:1015C800F55005D0F6CFE1FFF7CFE2FFE750DDECAD
:1015D80009F0034A042A03C0F6FF04C0F7FFF86ABB
:1015E800050EF76403D00800F55005D0F6CFE1FFEB
:1015F800F7CFE2FFE7500009D8A405EF0BF007EF9B
:101608000BF0D9EF0AF01200016E0104D8A40FEF15
:101618000BF011EF0BF035EF0BF001EC0FF00001C0
:10162800876F8729D8B41BEF0BF01DEF0BF029EF5C
:101638000BF0E651D8B423EF0BF025EF0BF029EFB0
:101648000BF0E66B875142EF0BF08729D8A42FEFF8
:101658000BF031EF0BF041EF0BF0010EE66F41EFAD
:101668000BF00150D8A43BEF0BF03DEF0BF041EF2E
:101678000BF001EC0FF042EF0BF0FF0E1200000E22
:10168800016E010EDDEC09F000019351D8B44FEF63
:101698000BF051EF0BF057EF0BF0BD0E066E2F0E4F
:1016A800076E5BEF0BF0C70E066E2F0E076E06C0B7
:1016B80003F007C004F0800E056ED2EC0AF00001BA
:1016C8009305D8B46AEF0BF06CEF0BF072EF0BF0E8
:1016D800A90E086E2F0E096E76EF0BF0B30E086E8A
:1016E8002F0E096E08C003F009C004F0C00E056E85
:1016F800D2EC0AF012005FA084EF0BF086EF0BF03B
:101708008CEF0BF00FC009F00EC00AF0FAEC09F0EC
:1017180011BE93EF0BF091EF0BF096EF0BF0116AFF
:10172800000E106E146A000E136EA4EF0BF0026A1E
:10173800200E016E0EC003F014EC0CF0134A142AAC
:101748001050135C1450800A126E1150800A1258FF
:10175800D8A0B1EF0BF0B3EF0BF09BEF0BF05FB03D
:10176800B8EF0BF0BAEF0BF0C0EF0BF00FC009F0B9
:101778000EC00AF0FAEC09F01200956A9450F80BC2
:10178800946E8290C30E036ECD0EE82EFED7032E04
:10179800FCD70000000E016E330EDDEC09F01B0EC5
:1017A800036E9E0EE82EFED7032EFCD700D0000E47
:1017B800016E330EDDEC09F0A60EE82EFED700D040
:1017C800000E016E330EDDEC09F000D000D00000F1
:1017D800000E016E020EDDEC09F0A60EE82EFED713
:1017E80000D0000E016E380EDDEC09F0A60EE82ED2
:1017F800FED700D0000E016E010EDDEC09F0040EDC
:10180800036E3E0EE82EFED7032EFCD7000E016EA7
:101818000C0EDDEC09F0A60EE82EFED700D0120063
:101828000350D8B41AEF0CF01CEF0CF024EF0CF0B6
:101838000350D8A422EF0CF024EF0CF029EF0CF0A1
:10184800015094EC08F068EF0CF00350D96EDA6A96
:10185800090ED926DE50DE10D8B435EF0CF037EF7C
:101868000CF050EF0CF00350D96EDA6A090ED92645
:101878000350E16EE26A020EE126DE50E65CE650B5
:10188800800A086EDE50800A0858D8B04EEF0CF077
:1018980050EF0CF068EF0CF00350D96EDA6A020EC4
:1018A800D926DF50046E0350D96EDA6ADF5004245B
:1018B800D96EDA6A01C0DFFF0350D96EDA6A020E08
:1018C800D926DE2A000EDD221200076A000E066EF7
:1018D8000150D96EDA6ADECFF6FFDDCFF7FF0800D8
:1018E800F5502A0AD8A47BEF0CF07DEF0CF0A6EF98
:1018F8000CF00150D96EDA6ADE2A000EDD220250A1
:10190800D96EDA6A020EDF26DF5CD96EDA6ADECFBC
:1019180006F0DECF07F0B9EF0CF00A0E0602F3CF9F
:1019280003F0F4CF04F00702F35004260550032413
:10193800066E000E0420076E0150D96EDA6ADE2AA0
:10194800000EDD220150D96EDA6ADECFF6FFDDCF58
:10195800F7FF0800F550D00F056E090E0564B7EFC4
:101968000CF0B9EF0CF091EF0CF006C001F007C0D5
:1019780002F01200066A02BEC6EF0CF0C4EF0CF0CB
:10198800CCEF0CF0016C021ED8B0022A010E066ED4
:1019980004BED3EF0CF0D1EF0CF0D7EF0CF0036CD2
:1019A800041ED8B0042A03500410D8B4DEEF0CF09B
:1019B800E0EF0CF004EF0DF0010E056EE8EF0CF00F
:1019C800D89003360436052A04AEEDEF0CF0EFEF9D
:1019D8000CF0E4EF0CF00350015C04500258D8A05E
:1019E800F8EF0CF0FAEF0CF0FEEF0CF00350015E8C
:1019F8000450025AD89004320332052EEFEF0CF04F
:101A08000650D8B40AEF0DF00CEF0DF010EF0DF002
:101A1800016C021ED8B0022A01C001F002C002F017
:101A2800120060AE1AEF0DF01CEF0DF06DEF0DF027
:101A380065CF01F0030E0118D8A425EF0DF027EFAC
:101A48000DF032EF0DF066CF82F067CF83F068CFEC
:101A580084F0010E00018C6F6CEF0DF0060E01187A
:101A6800D8A439EF0DF03BEF0DF06CEF0DF04E0EF2
:101A78006618D8B442EF0DF044EF0DF05DEF0DF0AD
:101A8800520E6618D8B44BEF0DF04DEF0DF05DEF28
:101A98000DF0300E666453EF0DF055EF0DF06CEF5E
:101AA8000DF0360E66605BEF0DF05DEF0DF06CEF3C
:101AB8000DF066CF60F067CF61F068CF62F069CF54
:101AC80063F06ACF64F06BCF65F0010E00018B6F95
:101AD800609E12005D505E10D8A475EF0DF077EF90
:101AE8000DF07DEF0DF05DC00EF05EC00FF083EFDE
:101AF8000DF0FF0E5D240E6EFF0E5E200F6E5FA0D0
:101B080088EF0DF08AEF0DF091EF0DF00AC001F0AB
:101B1800026A09C003F014EC0CF00FBE96EF0DF04A
:101B280098EF0DF09AEF0DF09DEF0DF00F6A000E93
:101B38000E6E0D6A000E0C6EABEF0DF0026A200EF1
:101B4800016E09C003F014EC0CF00C4A0D2A0E507B
:101B58000C5C0D50800A0B6E0F50800A0B58D8A0F1
:101B6800B8EF0DF0BAEF0DF0A2EF0DF05FB0BFEFD8
:101B78000DF0C1EF0DF0C8EF0DF00AC001F0026AD8
:101B880009C003F014EC0CF01200066A04BED1EF91
:101B98000DF0CFEF0DF0D7EF0DF0036C041ED8B0A9
:101BA800042A010E066E02BEDEEF0DF0DCEF0DF02A
:101BB800E4EF0DF0016C021ED8B0022A010E061ADD
:101BC800086A000E076E03500410D8B4EEEF0DF04B
:101BD800F0EF0DF018EF0EF0010E056EF8EF0DF0B6
:101BE800D89003360436052A04AEFDEF0DF0FFEF5A
:101BF8000DF0F4EF0DF0D890073608360350015C6D
:101C080004500258D8A00BEF0EF00DEF0EF012EFB3
:101C18000EF00350015E0450025A0780D890043237
:101C28000332052EFFEF0DF00650D8B41EEF0EF06C
:101C380020EF0EF024EF0EF0076C081ED8B0082A2B
:101C480007C001F008C002F01200000E19EC09F0FC
:101C58007F0BDEEC08F000018F6F010E19EC09F024
:101C6800DEEC08F000018E6F020E19EC09F03F0B54
:101C7800DEEC08F000018D6FC90E0F6E000E10EC3F
:101C880010F0000E016E010EDDEC09F0B60E346E98
:101C9800440E356E2F0E366EA8EC09F0B60E036EA4
:101CA800046A800E056ED2EC0AF0310E0001641948
:101CB800D8B461EF0EF063EF0EF069EF0EF0E10EAD
:101CC800C76F2F0EC86F6DEF0EF0D90EC76F2F0EAE
:101CD800C86FB60E346E180E356E2F0E366E8DC068
:101CE80037F0386A8EC039F03A6A8FC03BF03C6AE8
:101CF800C7C03DF0C8C03EF082C03FF0406A83C014
:101D080041F0426A84C043F0446AA8EC09F0B60E78
:101D1800036E046AC00E056ED2EC0AF0120092C07F
:101D2800C9F0CA0E0F6E0001C95110EC10F0D00EA8
:101D38000001CF25556E566AFF0E56225550561093
:101D4800D8A4A9EF0EF0ABEF0EF0B1EF0EF09A0E9B
:101D5800C76F2F0EC86FB5EF0EF0F80EC76F2F0EB6
:101D6800C86FB60E346E560E356E2F0E366EC7C05F
:101D780037F0C8C038F0D4C039F03A6AD5C03BF063
:101D88003C6AD6C03DF03E6AA8EC09F0000E016E30
:101D9800010EDDEC09F0B60E036E046A800E056EC6
:101DA800D2EC0AF0B60E346EFB0E356E2E0E366E81
:101DB800CAC037F0386ACBC039F03A6ACCC03BF0B9
:101DC8003C6ACDC03DF03E6ACEC03FF0406AD0C00C
:101DD80041F0426AD1C043F0446AD2C045F0466A35
:101DE800D3C047F0486AA8EC09F0B60E036E046A3F
:101DF800C00E056ED2EC0AF01200819A818C818E99
:101E080081B209EF0FF00BEF0FF00EEF0FF0010E9C
:101E180084EF0FF081B413EF0FF015EF0FF018EF08
:101E28000FF0040E84EF0FF081B61DEF0FF01FEFD7
:101E38000FF022EF0FF0070E84EF0FF081B827EFB5
:101E48000FF029EF0FF02CEF0FF00A0E84EF0FF0D0
:101E5800818A819C818E81B234EF0FF036EF0FF0CA
:101E680039EF0FF0020E84EF0FF081B43EEF0FF060
:101E780040EF0FF043EF0FF0050E84EF0FF081B63F
:101E880048EF0FF04AEF0FF04DEF0FF0080E84EF18
:101E98000FF081B852EF0FF054EF0FF057EF0FF03B
:101EA8000B0E84EF0FF0818A818C819E819E81B216
:101EB80060EF0FF062EF0FF065EF0FF0030E84EFA5
:101EC8000FF081B46AEF0FF06CEF0FF06FEF0FF0C7
:101ED800060E84EF0FF081B674EF0FF076EF0FF077
:101EE80079EF0FF0090E84EF0FF081B87EEF0FF055
:101EF80080EF0FF083EF0FF00C0E84EF0FF0FF0E62
:101F08001200000166517A5D556E67517B59566E15
:101F180068517C59576E69517D59586E5850571001
:101F28000BE1F40E555C010E5658D8A09EEF0FF049
:101F3800A0EF0FF0AAEF0FF0010EE71B7AC066F0D2
:101F48007BC067F07CC068F07DC069F0000E016E50
:101F5800010EDDEC09F0AA0E036E2F0E046E800E42
:101F6800056ED2EC0AF000019151D8A4BEEF0FF033
:101F7800C0EF0FF0E5EF0FF0E751D8B4C6EF0FF060
:101F8800C8EF0FF0D5EF0FF0B60E346EE90E356ED0
:101F98002F0E366E8EC037F0386AA8EC09F008EFBD
:101FA80010F0B60E346E0E0E356E2F0E366E8DC0D6
:101FB80037F0386A8EC039F03A6AA8EC09F008EFB1
:101FC80010F0E751D8B4EBEF0FF0EDEF0FF0FAEFA8
:101FD8000FF0B60E346ED10E356E2F0E366E8DC0E4
:101FE80037F0386AA8EC09F008EF10F0B60E346E36
:101FF8000E0E356E2F0E366E8DC037F0386A8EC0D5
:1020080039F03A6AA8EC09F0B60E036E046AC40EF9
:10201800056ED2EC0AF01200106E10500D0DF3CFC1
:1020280011F00F50D96EDA6A115004EC09F0D00F94
:10203800DF6E112A0F50D96EDA6A010ED9261150B7
:1020480004EC09F0DF6E112A0F50D96EDA6A020E1D
:10205800D926115004EC09F0D00FDF6E112A0F5069
:10206800D96EDA6A030ED926115004EC09F0D00FA4
:10207800DF6E112A0F50D96EDA6A040ED926115074
:1020880004EC09F0D00FDF6E112A0F50D96EDA6A0E
:10209800050ED926115004EC09F0D00FDF6E112A75
:1020A8000F50D96EDA6A060ED926115004EC09F0E1
:1020B800D00FDF6E112A0F50D96EDA6A070ED926B3
:1020C800115004EC09F0DF6E112A0F50D96EDA6A4C
:1020D800080ED926115004EC09F0DF6E112A0F50B2
:1020E800D96EDA6A090ED926115004EC09F0DF6EB0
:1020F800112A0F50D96EDA6A0A0ED926115004EC4B
:1021080009F0DF6E112A0F50D96EDA6A0B0ED92644
:10211800115004EC09F0DF6E112A0F50D96EDA6AFB
:102128000C0ED926115004EC09F0DF6E112A1200AA
:10213800116E11500D0DF3CF12F01050D96EDA6AEE
:10214800DF50300F0D6E125044EC09F0122A105077
:10215800D96EDA6A010ED926DF500D6E125044ECA2
:1021680009F0122A1050D96EDA6A020ED926DF5009
:10217800300F0D6E125044EC09F0122A1050D96E2F
:10218800DA6A030ED926DF50300F0D6E125044EC78
:1021980009F0122A1050D96EDA6A040ED926DF50D7
:1021A800300F0D6E125044EC09F0122A1050D96EFF
:1021B800DA6A050ED926DF50300F0D6E125044EC46
:1021C80009F0122A1050D96EDA6A060ED926DF50A5
:1021D800300F0D6E125044EC09F0122A1050D96ECF
:1021E800DA6A070ED926DF500D6E125044EC09F05A
:1021F800122A1050D96EDA6A080ED926DF500D6EF1
:10220800125044EC09F0122A1050D96EDA6A090EFD
:10221800D926DF500D6E125044EC09F0122A1050E6
:10222800D96EDA6A0A0ED926DF500D6E125044ECC8
:1022380009F0122A1050D96EDA6A0B0ED926DF502F
:102248000D6E125044EC09F0122A1050D96EDA6A59
:102258000C0ED926DF500D6E125044EC09F0122AEC
:1022680012000AC012F00BC013F012501310D8A4B9
:1022780040EF11F042EF11F046EF11F0F10E126E3F
:102288002F0E136E156A000E146E4DEF11F0144ADE
:10229800152A145012240C6E155013200D6E0CC004
:1022A800F6FF0DC0F7FFF86A050EF76403D00800C3
:1022B800F55005D0F6CFE1FFF7CFE2FFE750000970
:1022C800D8A469EF11F06BEF11F04BEF11F014C0C7
:1022D8000EF015C00FF05DC010F05EC011F05FB0D9
:1022E80078EF11F07AEF11F0B0EF11F085EF11F0FF
:1022F800026A200E016E09C003F014EC0CF0144AB7
:10230800152A1050145C1550800A0C6E1150800A62
:102318000C58D8A092EF11F094EF11F07CEF11F067
:10232800B0EF11F012C0F6FF13C0F7FFF86A050E00
:10233800F76403D00800F55005D0F6CFE1FFF7CFDA
:10234800E2FFE7500C6E0C50016E026A09C003F000
:1023580014EC0CF0124A132A0E06D8A00F060E2809
:1023680006E10F28D8A4BBEF11F0BDEF11F096EFEE
:1023780011F05FA0C2EF11F0C4EF11F0DEEF11F021
:10238800CFEF11F0026A200E016E09C003F014ECC1
:102398000CF0144A152A1050145C1550800A0C6E63
:1023A8001150800A0C58D8A0DCEF11F0DEEF11F0C4
:1023B800C6EF11F01200010E1A6E17BEE6EF11F00B
:1023C800E9EF11F0010EEAEF11F0000E1D6E5DC08D
:1023D8001BF05EC01CF01D50D8B4F5EF11F0F7EFFC
:1023E80011F00CEF12F01B06D8A01C061D50D8A443
:1023F80000EF12F002EF12F007EF12F0196A2B0E3D
:10240800186E0AEF12F0196A2D0E186E18C01DF01A
:102418001F6A1F0E1E6E0001B56B3DEF12F01E06FF
:10242800D8A01F061E50960FD96EDA6A16C001F0A2
:1024380017C002F0046A0A0E036EBEEC0CF001C06D
:1024480007F002C008F08EEC09F00750300FDF6E7D
:102458001A6A1B06D8A01C0616C001F017C002F0A5
:10246800046A0A0E036EC9EC0DF001C016F002C032
:1024780017F01FBE48EF12F01F5008E11E04D8A045
:1024880048EF12F04AEF12F06FEF12F016501710E3
:10249800D8A451EF12F053EF12F013EF12F01A50C4
:1024A800D8A459EF12F05BEF12F013EF12F01CBE34
:1024B80066EF12F01C5008E11B04D8A066EF12F07A
:1024C80068EF12F06FEF12F05FB26DEF12F06FEF7E
:1024D80012F013EF12F01D50D8B475EF12F077EF29
:1024E80012F080EF12F01E06D8A01F061E50960F9D
:1024F800D96EDA6A1DC0DFFF15C00EF01E50960FA8
:102508000F6E1BC010F01CC011F07FEC0BF0120016
:102518002150D96EDA6ADECFF6FFDDCFF7FF08006B
:10252800F550250AD8A49BEF12F09DEF12F0E4EFC6
:1025380013F02150D96EDA6ADE2A000EDD225E6AB7
:10254800000E5D6E5DC05FF00001856986692D6AC9
:10255800CAEF12F05F822150D96EDA6ADE2A000EC5
:10256800DD22CAEF12F0010E2D6ECAEF12F02150D3
:10257800D96EDA6ADECFF6FFDDCFF7FF0800F55037
:10258800300AD8B4AEEF12F0B7EF12F02D50D8B42D
:10259800D0EF12F0D2EF12F0BBEF12F021C001F031
:1025A80022C002F069EC0CF001C05DF002C05EF0E0
:1025B8005EBEE3EF12F0E1EF12F0E8EF12F05F8099
:1025C8005D6C5E1ED8B05E2A2150D96EDA6ADECF05
:1025D800F6FFDDCFF7FF0800F550630AD8A4F7EF40
:1025E80012F0F9EF12F012EF13F02150D96EDA6AF7
:1025F800DE2A000EDD2222C0D9FF23C0DAFFDF5019
:10260800DF2ADF2AD96EDA6ADF502A6E20C009F085
:102618002AC00AF06EEC0DF0F5EF13F02150D96ED8
:10262800DA6ADECF2BF0DDCF2CF02BC0F6FF2CC002
:10263800F7FF0800F550640AD8B425EF13F027EF28
:1026480013F035EF13F02BC0F6FF2CC0F7FF08008E
:10265800F550690AD8A433EF13F035EF13F059EFAA
:1026680013F022C0D9FF23C0DAFF020EDF26DF5C99
:10267800D96EDA6ADECF26F0DECF27F0010E2B24E2
:10268800246E000E2C20256E2150D96EDA6A24C0E3
:10269800DEFF25C0DDFF20C015F026C016F027C0DC
:1026A80017F0DFEC11F0F5EF13F02D6A2150D96E19
:1026B800DA6ADECFF6FFDDCFF7FF0800F550730AC0
:1026C800D8A469EF13F06BEF13F075EF13F02150F6
:1026D800D96EDA6ADE2A000EDD22010E2D6EC1EFF8
:1026E80013F02150D96EDA6ADECFF6FFDDCFF7FF9F
:1026F8000800F5506C0AD8A484EF13F086EF13F0A5
:10270800C1EF13F02150D96EDA6ADECF24F0DDCFA5
:1027180025F0010E2426000E252224C0F6FF25C030
:10272800F7FF0800F5506C0AD8A49DEF13F09FEF4F
:1027380013F0C1EF13F02150D96EDA6ADECF24F01E
:10274800DDCF25F0020E2426000E252224C0F6FF38
:1027580025C0F7FF0800F550730AD8A4B6EF13F0A8
:10276800B8EF13F0C1EF13F02150D96EDA6A030EF7
:10277800DE26000EDD2271EF13F02D50D8B4C7EF1E
:1027880013F0C9EF13F0DCEF13F020C009F022C0FA
:10279800D9FF23C0DAFF020EDF26DF5CD96EDA6AC2
:1027A800DECF0AF0DECF0BF035EC11F0F5EF13F0C9
:1027B8002150D96EDA6ADE2A000EDD22F5EF13F019
:1027C8002150D96EDA6ADECFF6FFDDCFF7FF0800B9
:1027D800F550016E026A20C003F014EC0CF0DCEF37
:1027E80013F01200D3EC08F0010E08EC0BF0000116
:1027F800956F9529D8B403EF14F005EF14F00DEF99
:1028080014F07AC076F07BC077F07CC078F07DC099
:1028180079F015EC0DF0000E19EC09F07F0BDEECE9
:1028280008F000018F6F010E19EC09F0DEEC08F0DA
:1028380000018E6F020E19EC09F03F0BDEEC08F078
:1028480000018D6F8C51D8B42CEF14F02EEF14F0DA
:102858005AEF14F08B51D8B434EF14F036EF14F06B
:102868005AEF14F060C0DAF06151D00FDB6F62519B
:10287800D00FDC6F6351D00FDD6F6451D00FDE6F66
:102888006551D00FDF6F8DC0E0F08EC0E1F08FC0D2
:10289800E2F082C0E3F083C0E4F084C0E5F0D90E32
:1028A800216E9FEC0AF000018B6B8C6B9405D8A409
:1028B80060EF14F062EF14F07AEF14F0E96B000E99
:1028C800016E010EDDEC09F0310E036E2F0E046E61
:1028D800800E056ED2EC0AF0930E036E2F0E046E76
:1028E800C00E056ED2EC0AF0F8EF13F0020E901944
:1028F800D8B481EF14F083EF14F095EF14F0030EC1
:102908009019D8B48AEF14F08CEF14F095EF14F006
:10291800040E9019D8A493EF14F095EF14F0F6EF85
:1029280016F076517A5D596E77517B595A6E785107
:102938007C595B6E79517D595C6E5C505B100BE184
:10294800880E595C130E5A58D8A0ADEF14F0AFEFAB
:1029580014F0F6EF16F0000E016E010EDDEC09F032
:102968000001906B936B926B896BF6EF16F09505EF
:10297800D8B4C1EF14F0C3EF14F0CCEF14F0020E8A
:102988009519D8A4CAEF14F0CCEF14F017EF17F08C
:10299800000E016E010EDDEC09F0010E0001906FD2
:1029A800936B17EF17F08851D8B4DDEF14F0DFEF11
:1029B80014F015EF15F0860E036E2F0E046E800EC0
:1029C800056ED2EC0AF09E0E036E2F0E046EC00E3A
:1029D800056ED2EC0AF000016A517A5D596E6B51AE
:1029E8007B595A6E6C517C595B6E6D517D595C6E8A
:1029F8005C500DE1200E595CBF0E5A58020E5B5810
:102A0800D8A009EF15F00BEF15F017EF17F0886B4A
:102A1800030EE86F000E016E010EDDEC09F017EFF2
:102A280017F08951D8B41BEF15F01DEF15F041EFE1
:102A380015F06E517A5D596E6F517B595A6E70510F
:102A48007C595B6E71517D595C6E5C505B100BE17B
:102A5800B80E595C0B0E5A58D8A035EF15F037EF61
:102A680015F041EF15F0896B000E016E010EDDECDB
:102A780009F00001906B17EF17F00B0E9519D8B4F9
:102A880048EF15F04AEF15F053EF15F00C0E9519B5
:102A9800D8A451EF15F053EF15F0D4EF15F0895184
:102AA800720FD96EDA6A95C0DFFF892B7AC06EF093
:102AB8007BC06FF07CC070F07DC071F0895156EC1E
:102AC8000AF0040E00018919D8A46DEF15F06FEF14
:102AD80015F0D4EF15F0010ED76FD86B030ED8653B
:102AE80078EF15F07AEF15F07CEF15F098EF15F008
:102AF800D851720FD96EDA6ADF50596EF70ED825A1
:102B0800F66EF76A2E0EF7220800F5505918D8B459
:102B180090EF15F092EF15F095EF15F0D76B98EF51
:102B280015F0D82B72EF15F0896BD751D8B49FEFF9
:102B380015F0A1EF15F0B3EF15F07AC076F07BC071
:102B480077F07CC078F07DC079F0000E016E010E40
:102B5800DDEC09F0020E0001906FD4EF15F0E807E4
:102B6800000E016E010EDDEC09F0680E036E2F0EEB
:102B7800046E800E056ED2EC0AF00001E851D8A46C
:102B8800C8EF15F0CAEF15F0D4EF15F0010E886FF5
:102B98007AC06AF07BC06BF07CC06CF07DC06DF0D1
:102BA8000A0E9519D8A4DBEF15F0DDEF15F017EF35
:102BB80017F0896B000E016E010EDDEC09F00001C3
:102BC800906B936B926B896B17EF17F09505D8A4F0
:102BD800F0EF15F0F2EF15F0FDEF15F09351D8B4C2
:102BE800F8EF15F0FAEF15F0FDEF15F0930717EF72
:102BF80017F0020E9519D8A404EF16F006EF16F098
:102C080011EF16F09351D8A40CEF16F00EEF16F052
:102C180011EF16F0932B17EF17F0030E9519D8A4A0
:102C280018EF16F01AEF16F030EF16F0000E016EDE
:102C3800010EDDEC09F000019351D8B426EF16F02F
:102C480028EF16F02CEF16F0040E906FD4EF14F066
:102C5800030E906FD4EF14F00A0E9519D8A437EF2D
:102C680016F039EF16F017EF17F0000E016E010E8F
:102C7800DDEC09F0E3EF15F09505D8A446EF16F062
:102C880048EF16F054EF16F0922B090E92654FEFAD
:102C980016F051EF16F017EF17F0926B17EF17F0C9
:102CA800020E9519D8A45BEF16F05DEF16F06CEFE5
:102CB80016F09251D8A463EF16F065EF16F069EF9D
:102CC80016F0090E926F17EF17F0920717EF17F02B
:102CD800030E9519D8A473EF16F075EF16F07FEF71
:102CE80016F0000E016E010EDDEC09F0020E000177
:102CF800906F17EF17F00A0E9519D8A486EF16F003
:102D080088EF16F017EF17F0000E016E010EDDECDC
:102D180009F0E3EF15F0020E9519D8A496EF16F016
:102D280098EF16F0A5EF16F09151D8B49EEF16F073
:102D3800A1EF16F0010EA2EF16F0000E916F17EF3B
:102D480017F09505D8A4ABEF16F0ADEF16F0CDEF60
:102D580016F09151D8A4B3EF16F0B5EF16F0C1EF05
:102D680016F08D2B170E8D65BCEF16F0BEEF16F022
:102D780017EF17F08D6B17EF17F08E2B3B0E8E6544
:102D8800C8EF16F0CAEF16F017EF17F08E6B17EFB3
:102D980017F0030E9519D8A4D4EF16F0D6EF16F055
:102DA800E6EF16F08EC00DF0000E0E6E8D51C2ECDF
:102DB80009F0000E016E010EDDEC09F00001906BC8
:102DC800D4EF14F00A0E9519D8A4EDEF16F0EFEF32
:102DD80016F017EF17F0000E016E010EDDEC09F08A
:102DE800E3EF15F09051596E5A6A5A50000AD8B458
:102DF80000EF17F017EF17F05950000AD8B4BBEFDF
:102E080014F0010AD8B4D7EF14F0030AD8B4EAEFE3
:102E180015F0010AD8B440EF16F0070AD8B48FEFBE
:102E280016F017EF17F000017E517A5D596E7F5149
:102E38007B595A6E80517C595B6E81517D595C6E0D
:102E48005C505B105A1009E1640E595CD8A02FEF52
:102E580017F031EF17F068EF17F07AC07EF07BC0FB
:102E68007FF07CC080F07DC081F04BEF17F029EC3B
:102E78000EF068EF17F085EC0FF068EF17F043ECF1
:102E88000BF068EF17F093EC0EF068EF17F0905125
:102E9800596E5A6A5A50000AD8B455EF17F068EFBD
:102EA80017F05950000AD8B43BEF17F0020AD8B40B
:102EB80043EF17F0010AD8B447EF17F0070AD8B460
:102EC8003FEF17F068EF17F0010E00017A27000EA8
:102ED8007B237C237D23070E596E7D0EE82EFED7BB
:102EE800592EFCD70000F8EF13F0FEEF17F0000B97
:102EF8000C0B0C2563202563256325632563256357
:102F080020253032643A253032643A253032640064
:102F1800253032643A253032643A2530326420252F
:102F2800732025632563256300434F4C4C4953495F
:102F38004F4E2048415050454E45440054494D4558
:102F4800202020202020452020202053500023200E
:102F58004753424443202573202563256325630096
:102F680057524F4E472050415353574F52440045F4
:102F78004E5445522050415353574F5244004C4FE2
:102F880047494E204C4F434B454400454E47494E18
:102F980045204F464600574149542033204D494E5D
:102FA80000205345542054494D45003E5345542074
:102FB80054494D45002056494557204C4F47003E3F
:102FC80056494557204C4F4700253032643A202057
:102FD80000454E47204F4E2000454E47204F46465D
:102FE8000020203A2530326400286E756C6C290068
:082FF8004F4E000017EF0AF034
:00000001FF
